:0800000002003032F222E2227C
:04000B00020092322B
:0100130032BA
:01001B0032B2
:0100230032AA
:01002B0032A2
:10003000758108D2A7D2A67426120004D2A7D2A630
:100040007460120004D2A7D2A674A6120004C2A73C
:10005000C2A674021200049000A0E49360F9C2A743
:10006000D2A6120004A3E493F5F0741084D2A7C2C0
:10007000A6120004D2A7D2A67440120004D2A7C2CE
:10008000A612000670EEA380D17A01D8FED9FCDA60
:10009000FA22C28D758ADF758CB1D29200C292327B
:1000A0000C040C040C020C040C040C020C040A04D6
:1000B00010040E040C010B040B040B040B040B04C2
:1000C0000C040C040C040C040E040E040C040E02AC
:1000D0000A020C040C040C020C040C040C020C04A8
:1000E0000A0410040E040C010B040B040B040B0493
:1000F0000B040C040C040C040A040B040C040E0482
:03010000100100EB
:00000001FF
