:0400000002001632B2
:05000B00C28CC2AA3204
:1000130002003A758104783F7600D8FC1200B712CB
:1000230000C3308C0280FB10D50280F37810781067
:10003300E50B1200F880E8758A00C0E0C0D020D13B
:100043000EE58CB4FF43D0D0D2D1C0D002009E7451
:10005300FE958C60025032E50D33F50DD50A3C75E3
:100063000A08E50C7015E50DC39432501C850D0F7D
:10007300850D0C850D0B150B02009EE50DD50C109F
:10008300B50F06D0D0D2D5C0D0C28CC2AA0200B25E
:10009300620FC000A80EF6D000050E758CFE108D01
:1000A300E830B3FAE58CB4FFE0758A00758CFDD0B7
:1000B300D0D0E032438901438805D2BA43A88222D3
:1000C300758A00758CFC750A08750C00750E10C2D4
:1000D300D1C2D530B3FDD28CC28BD2AA227A08C248
:1000E300B17906D9FE1392B17906D9FEDAF7D2B106
:0E00F3007906D9FE22FBE6081200E0DBF922B6
:00000001FF
