:0400000002001432B4
:01000B0032C2
:1000130032758105783F7600D8FC78101200C5FB55
:100023007810EB12006980F2C2B512008CD2B512BF
:1000330000961200961200967A11D2B512008CC265
:10004300B512008CDAF4D2B5120096C2B512009143
:10005300227A08D2B512009133500312008CC2B534
:10006300120091DAEE22D2B7FBC39431501A120078
:100073002BEB04F504120054E6620412005408DB6F
:10008300F7E504120054C2B722797FD9FE2279BE64
:10009300D9FE22120091D9FE227A087903D9FE20D3
:1000A300B00A7906D9FEA2B013DAF722D2D1222000
:1000B300B0FD12009C2230B005D9FBD2D52212002C
:1000C3009C227B011200B210D1FAF61200B910D5AE
:0A00D3000710D104080B80F2EB22A5
:00000001FF
